{
  "contractName": "DAO",
  "abi": [
    {
      "constant": true,
      "inputs": [
        {
          "name": "",
          "type": "uint256"
        }
      ],
      "name": "proposals",
      "outputs": [
        {
          "name": "id",
          "type": "uint256"
        },
        {
          "name": "description",
          "type": "string"
        },
        {
          "name": "voteYes",
          "type": "uint256"
        },
        {
          "name": "voteNo",
          "type": "uint256"
        },
        {
          "name": "initialTotalBalance",
          "type": "uint256"
        },
        {
          "name": "_sealed",
          "type": "bool"
        }
      ],
      "payable": false,
      "stateMutability": "view",
      "type": "function",
      "signature": "0x013cf08b"
    },
    {
      "constant": true,
      "inputs": [],
      "name": "creator",
      "outputs": [
        {
          "name": "",
          "type": "address"
        }
      ],
      "payable": false,
      "stateMutability": "view",
      "type": "function",
      "signature": "0x02d05d3f"
    },
    {
      "constant": true,
      "inputs": [],
      "name": "valuation",
      "outputs": [
        {
          "name": "",
          "type": "uint256"
        }
      ],
      "payable": false,
      "stateMutability": "view",
      "type": "function",
      "signature": "0x21a7cfe4"
    },
    {
      "constant": true,
      "inputs": [
        {
          "name": "",
          "type": "address"
        }
      ],
      "name": "balances",
      "outputs": [
        {
          "name": "",
          "type": "uint256"
        }
      ],
      "payable": false,
      "stateMutability": "view",
      "type": "function",
      "signature": "0x27e235e3"
    },
    {
      "constant": true,
      "inputs": [
        {
          "name": "",
          "type": "uint256"
        }
      ],
      "name": "investors",
      "outputs": [
        {
          "name": "",
          "type": "address"
        }
      ],
      "payable": false,
      "stateMutability": "view",
      "type": "function",
      "signature": "0x3feb5f2b"
    },
    {
      "constant": true,
      "inputs": [],
      "name": "unsealedProposal",
      "outputs": [
        {
          "name": "",
          "type": "bool"
        }
      ],
      "payable": false,
      "stateMutability": "view",
      "type": "function",
      "signature": "0x7cc3977d"
    },
    {
      "constant": true,
      "inputs": [
        {
          "name": "",
          "type": "address"
        },
        {
          "name": "",
          "type": "uint256"
        }
      ],
      "name": "votes",
      "outputs": [
        {
          "name": "",
          "type": "uint8"
        }
      ],
      "payable": false,
      "stateMutability": "view",
      "type": "function",
      "signature": "0x9f2524ee"
    },
    {
      "constant": true,
      "inputs": [],
      "name": "totalBalance",
      "outputs": [
        {
          "name": "",
          "type": "uint256"
        }
      ],
      "payable": false,
      "stateMutability": "view",
      "type": "function",
      "signature": "0xad7a672f"
    },
    {
      "constant": true,
      "inputs": [],
      "name": "curator",
      "outputs": [
        {
          "name": "",
          "type": "address"
        }
      ],
      "payable": false,
      "stateMutability": "view",
      "type": "function",
      "signature": "0xe66f53b7"
    },
    {
      "inputs": [],
      "payable": false,
      "stateMutability": "nonpayable",
      "type": "constructor",
      "signature": "constructor"
    },
    {
      "constant": false,
      "inputs": [
        {
          "name": "newCurator",
          "type": "address"
        }
      ],
      "name": "delegateCurator",
      "outputs": [],
      "payable": false,
      "stateMutability": "nonpayable",
      "type": "function",
      "signature": "0x41132271"
    },
    {
      "constant": false,
      "inputs": [
        {
          "name": "description",
          "type": "string"
        }
      ],
      "name": "createProposal",
      "outputs": [],
      "payable": false,
      "stateMutability": "nonpayable",
      "type": "function",
      "signature": "0x49c2a1a6"
    },
    {
      "constant": false,
      "inputs": [],
      "name": "deposit",
      "outputs": [],
      "payable": true,
      "stateMutability": "payable",
      "type": "function",
      "signature": "0xd0e30db0"
    },
    {
      "constant": false,
      "inputs": [
        {
          "name": "amount",
          "type": "uint256"
        }
      ],
      "name": "withdraw",
      "outputs": [],
      "payable": false,
      "stateMutability": "nonpayable",
      "type": "function",
      "signature": "0x2e1a7d4d"
    },
    {
      "constant": false,
      "inputs": [
        {
          "name": "proposalId",
          "type": "uint256"
        },
        {
          "name": "myVote",
          "type": "uint8"
        }
      ],
      "name": "vote",
      "outputs": [],
      "payable": false,
      "stateMutability": "nonpayable",
      "type": "function",
      "signature": "0x943e8216"
    },
    {
      "constant": true,
      "inputs": [
        {
          "name": "_of",
          "type": "address"
        }
      ],
      "name": "getBalance",
      "outputs": [
        {
          "name": "",
          "type": "uint256"
        }
      ],
      "payable": false,
      "stateMutability": "view",
      "type": "function",
      "signature": "0xf8b2cb4f"
    }
  ],
  "bytecode": "0x60806040526001600255600160055534801561001a57600080fd5b50336000806101000a81548173ffffffffffffffffffffffffffffffffffffffff021916908373ffffffffffffffffffffffffffffffffffffffff16021790555033600160006101000a81548173ffffffffffffffffffffffffffffffffffffffff021916908373ffffffffffffffffffffffffffffffffffffffff16021790555061125e806100ab6000396000f3fe6080604052600436106100db576000357c0100000000000000000000000000000000000000000000000000000000900463ffffffff168063013cf08b146100e057806302d05d3f146101bb57806321a7cfe41461021257806327e235e31461023d5780632e1a7d4d146102a25780633feb5f2b146102dd578063411322711461035857806349c2a1a6146103a95780637cc3977d1461042f578063943e82161461045e5780639f2524ee146104a6578063ad7a672f14610523578063d0e30db01461054e578063e66f53b714610558578063f8b2cb4f146105af575b600080fd5b3480156100ec57600080fd5b506101196004803603602081101561010357600080fd5b8101908080359060200190929190505050610614565b604051808781526020018060200186815260200185815260200184815260200183151515158152602001828103825287818151815260200191508051906020019080838360005b8381101561017b578082015181840152602081019050610160565b50505050905090810190601f1680156101a85780820380516001836020036101000a031916815260200191505b5097505050505050505060405180910390f35b3480156101c757600080fd5b506101d06106f5565b604051808273ffffffffffffffffffffffffffffffffffffffff1673ffffffffffffffffffffffffffffffffffffffff16815260200191505060405180910390f35b34801561021e57600080fd5b5061022761071a565b6040518082815260200191505060405180910390f35b34801561024957600080fd5b5061028c6004803603602081101561026057600080fd5b81019080803573ffffffffffffffffffffffffffffffffffffffff169060200190929190505050610720565b6040518082815260200191505060405180910390f35b3480156102ae57600080fd5b506102db600480360360208110156102c557600080fd5b8101908080359060200190929190505050610738565b005b3480156102e957600080fd5b506103166004803603602081101561030057600080fd5b81019080803590602001909291905050506108df565b604051808273ffffffffffffffffffffffffffffffffffffffff1673ffffffffffffffffffffffffffffffffffffffff16815260200191505060405180910390f35b34801561036457600080fd5b506103a76004803603602081101561037b57600080fd5b81019080803573ffffffffffffffffffffffffffffffffffffffff16906020019092919050505061091d565b005b3480156103b557600080fd5b5061042d600480360360208110156103cc57600080fd5b81019080803590602001906401000000008111156103e957600080fd5b8201836020820111156103fb57600080fd5b8035906020019184600183028401116401000000008311171561041d57600080fd5b90919293919293905050506109df565b005b34801561043b57600080fd5b50610444610b86565b604051808215151515815260200191505060405180910390f35b34801561046a57600080fd5b506104a46004803603604081101561048157600080fd5b8101908080359060200190929190803560ff169060200190929190505050610b99565b005b3480156104b257600080fd5b506104ff600480360360408110156104c957600080fd5b81019080803573ffffffffffffffffffffffffffffffffffffffff16906020019092919080359060200190929190505050610ceb565b6040518082600281111561050f57fe5b60ff16815260200191505060405180910390f35b34801561052f57600080fd5b50610538610d1a565b6040518082815260200191505060405180910390f35b610556610d20565b005b34801561056457600080fd5b5061056d610e9d565b604051808273ffffffffffffffffffffffffffffffffffffffff1673ffffffffffffffffffffffffffffffffffffffff16815260200191505060405180910390f35b3480156105bb57600080fd5b506105fe600480360360208110156105d257600080fd5b81019080803573ffffffffffffffffffffffffffffffffffffffff169060200190929190505050610ec3565b6040518082815260200191505060405180910390f35b6007602052806000526040600020600091509050806000015490806001018054600181600116156101000203166002900480601f0160208091040260200160405190810160405280929190818152602001828054600181600116156101000203166002900480156106c65780601f1061069b576101008083540402835291602001916106c6565b820191906000526020600020905b8154815290600101906020018083116106a957829003601f168201915b5050505050908060020154908060030154908060040154908060050160009054906101000a900460ff16905086565b6000809054906101000a900473ffffffffffffffffffffffffffffffffffffffff1681565b60025481565b60066020528060005260406000206000915090505481565b80600660003373ffffffffffffffffffffffffffffffffffffffff1673ffffffffffffffffffffffffffffffffffffffff168152602001908152602001600020541015151561078657600080fd5b806003541015151561079757600080fd5b600460009054906101000a900460ff161561083457600060028111156107b957fe5b600860003373ffffffffffffffffffffffffffffffffffffffff1673ffffffffffffffffffffffffffffffffffffffff1681526020019081526020016000206000600160055403815260200190815260200160002060009054906101000a900460ff16600281111561082757fe5b14151561083357600080fd5b5b80600660003373ffffffffffffffffffffffffffffffffffffffff1673ffffffffffffffffffffffffffffffffffffffff16815260200190815260200160002060008282540392505081905550806003600082825403925050819055503373ffffffffffffffffffffffffffffffffffffffff166108fc60025483029081150290604051600060405180830381858888f193505050501580156108db573d6000803e3d6000fd5b5050565b6009818154811015156108ee57fe5b906000526020600020016000915054906101000a900473ffffffffffffffffffffffffffffffffffffffff1681565b600160009054906101000a900473ffffffffffffffffffffffffffffffffffffffff1673ffffffffffffffffffffffffffffffffffffffff163373ffffffffffffffffffffffffffffffffffffffff1614151561097957600080fd5b60001515600460009054906101000a900460ff16151514151561099b57600080fd5b80600160006101000a81548173ffffffffffffffffffffffffffffffffffffffff021916908373ffffffffffffffffffffffffffffffffffffffff16021790555050565b600160009054906101000a900473ffffffffffffffffffffffffffffffffffffffff1673ffffffffffffffffffffffffffffffffffffffff163373ffffffffffffffffffffffffffffffffffffffff16141515610a3b57600080fd5b60001515600460009054906101000a900460ff161515141515610a5d57600080fd5b60c060405190810160405280600554815260200183838080601f016020809104026020016040519081016040528093929190818152602001838380828437600081840152601f19601f8201169050808301925050505050505081526020016000815260200160008152602001600354815260200160001515815250600760006005548152602001908152602001600020600082015181600001556020820151816001019080519060200190610b1392919061118d565b5060408201518160020155606082015181600301556080820151816004015560a08201518160050160006101000a81548160ff0219169083151502179055509050506001600460006101000a81548160ff0219169083151502179055506005600081548092919060010191905055505050565b600460009054906101000a900460ff1681565b6000600760008481526020019081526020016000206000015414151515610bbf57600080fd5b600015156007600084815260200190815260200160002060050160009054906101000a900460ff161515141515610bf557600080fd5b60006002811115610c0257fe5b816002811115610c0e57fe5b14151515610c1b57600080fd5b60006002811115610c2857fe5b600860003373ffffffffffffffffffffffffffffffffffffffff1673ffffffffffffffffffffffffffffffffffffffff168152602001908152602001600020600084815260200190815260200160002060009054906101000a900460ff166002811115610c9157fe5b141515610c9d57600080fd5b610ce78282600660003373ffffffffffffffffffffffffffffffffffffffff1673ffffffffffffffffffffffffffffffffffffffff16815260200190815260200160002054610f0c565b5050565b60086020528160005260406000206020528060005260406000206000915091509054906101000a900460ff1681565b60035481565b34600660003373ffffffffffffffffffffffffffffffffffffffff1673ffffffffffffffffffffffffffffffffffffffff168152602001908152602001600020600082825401925050819055503460036000828254019250508190555060093390806001815401808255809150509060018203906000526020600020016000909192909190916101000a81548173ffffffffffffffffffffffffffffffffffffffff021916908373ffffffffffffffffffffffffffffffffffffffff160217905550506000600860003373ffffffffffffffffffffffffffffffffffffffff1673ffffffffffffffffffffffffffffffffffffffff1681526020019081526020016000206000600160055403815260200190815260200160002060009054906101000a900460ff16905060011515600460009054906101000a900460ff161515148015610e84575060006002811115610e7557fe5b816002811115610e8157fe5b14155b15610e9a57610e996001600554038234610f0c565b5b50565b600160009054906101000a900473ffffffffffffffffffffffffffffffffffffffff1681565b6000600660008373ffffffffffffffffffffffffffffffffffffffff1673ffffffffffffffffffffffffffffffffffffffff168152602001908152602001600020549050919050565b600060076000858152602001908152602001600020905060016002811115610f3057fe5b836002811115610f3c57fe5b1415610f5957818160020160008282540192505081905550610f6c565b8181600301600082825401925050819055505b82600860003373ffffffffffffffffffffffffffffffffffffffff1673ffffffffffffffffffffffffffffffffffffffff168152602001908152602001600020600086815260200190815260200160002060006101000a81548160ff02191690836002811115610fd857fe5b021790555080600401548160030154600202111561102e5760018160050160006101000a81548160ff0219169083151502179055506000600460006101000a81548160ff02191690831515021790555050611141565b80600401548160020154600202111561113f5760018160050160006101000a81548160ff0219169083151502179055506000600460006101000a81548160ff021916908315150217905550611083600b611146565b600254026002819055506000600254141561113e57600060038190555060008090505b60098054905081101561113c57600660006009838154811015156110c657fe5b9060005260206000200160009054906101000a900473ffffffffffffffffffffffffffffffffffffffff1673ffffffffffffffffffffffffffffffffffffffff1673ffffffffffffffffffffffffffffffffffffffff1681526020019081526020016000206000905580806001019150506110a6565b505b5b505b505050565b60008142446040516020018083815260200182815260200192505050604051602081830303815290604052805190602001206001900481151561118557fe5b069050919050565b828054600181600116156101000203166002900490600052602060002090601f016020900481019282601f106111ce57805160ff19168380011785556111fc565b828001600101855582156111fc579182015b828111156111fb5782518255916020019190600101906111e0565b5b509050611209919061120d565b5090565b61122f91905b8082111561122b576000816000905550600101611213565b5090565b9056fea165627a7a7230582010575a0450db4be99cea0ac46f0d2fceab2e850acb4116d57b347bb5e7e2cdb50029",
  "source": "pragma solidity ^0.5.0;\n\ncontract DAO {\n  struct Proposal {\n    uint id;\n    string description;\n    uint voteYes;\n    uint voteNo;\n    uint initialTotalBalance;\n    bool _sealed; //sealed is a reserved keyword\n  }\n  enum Vote {\n    UNDEFINED,\n    YES,\n    NO\n  }\n  address public creator;\n  address public curator;\n  uint public valuation = 1;\n  uint public totalBalance;\n  bool public unsealedProposal; //true if there is an unsealed proposal (i.e a vote is ongoing)\n  uint nextProposalId = 1; //1 and not 0 so that we can check that a proposal exist with `proposals[proposalId].id != 0`\n  mapping(address => uint) public balances; //token balances.\n  mapping(uint => Proposal) public proposals; //collection of proposals index by the their ids\n  mapping(address => mapping(uint => Vote)) public votes; //represents user votes, per proposal. nested uint is proposalId\n  address[] public investors; //to be able to reset balances mapping\n\n  constructor() public {\n    creator = msg.sender;\n    curator = msg.sender;\n  }\n\n  function delegateCurator(address newCurator) \n    external \n    isCurator()\n    noUnsealedProposal() {\n    curator = newCurator; \n  }\n  \n  function createProposal(string calldata description) \n    external \n    isCurator()\n    noUnsealedProposal() {\n    proposals[nextProposalId] = Proposal(\n      nextProposalId, \n      description, \n      0,\n      0,\n      totalBalance,\n      false\n    );\n    unsealedProposal = true;\n    nextProposalId++;\n  }\n\n  function deposit() external payable {\n    balances[msg.sender] += msg.value;\n    totalBalance += msg.value;\n    investors.push(msg.sender); //certain addresses will be added several times if several deposit, but this array is only used to reset balances, so thats ok\n\n    //vote for current proposal IF its unsealed AND sender has already voted\n    Vote myVote = votes[msg.sender][nextProposalId - 1];\n    if(unsealedProposal == true && myVote != Vote.UNDEFINED) {\n      _vote(nextProposalId - 1, myVote, msg.value);\n    }\n  }\n\n  function withdraw(uint amount) external {\n    require(balances[msg.sender] >= amount);\n    require(totalBalance >= amount);\n    //If a proposal in unsealed (i.e we are voting) and the sender has voted, all his/her tokens are frozen, cant withdraw\n    if(unsealedProposal) {\n      require(votes[msg.sender][nextProposalId - 1] == Vote.UNDEFINED);\n    }\n    balances[msg.sender] -= amount;\n    totalBalance -= amount;\n    msg.sender.transfer(amount * valuation);\n  }\n\n  function vote(uint proposalId, Vote myVote) external {\n    require(proposals[proposalId].id != 0); //make sure proposal exist\n    require(proposals[proposalId]._sealed == false);\n    require(myVote != Vote.UNDEFINED);\n    require(votes[msg.sender][proposalId] == Vote.UNDEFINED); //if vote is UNDEFINED means user never voted before\n    _vote(proposalId, myVote, balances[msg.sender]);\n  }\n\n  function _vote(uint proposalId, Vote myVote, uint amount) internal {\n    Proposal storage proposal = proposals[proposalId];\n    if(myVote == Vote.YES) {\n      proposal.voteYes += amount;\n    } else {\n      proposal.voteNo += amount;\n    }\n    votes[msg.sender][proposalId] = myVote;\n    if(2 * proposal.voteNo > proposal.initialTotalBalance) {\n      proposal._sealed = true;\n      unsealedProposal = false;\n      return;\n    }\n    if(2 * proposal.voteYes > proposal.initialTotalBalance) {\n      proposal._sealed = true;\n      unsealedProposal = false;\n      valuation = valuation * _random(11);\n      if(valuation == 0) {\n        totalBalance = 0;\n        for(uint i = 0; i < investors.length; i++) {\n          delete balances[investors[i]];\n        }\n      }\n    }\n  }\n\n  function _random(uint modulo) view internal returns(uint) {\n    return uint(keccak256(abi.encodePacked(block.timestamp, block.difficulty))) % modulo;\n  }\n\n  function getBalance(address _of) view external returns(uint) {\n    return balances[_of]; //of is a reserved keyword\n  }\n\n  modifier isCurator() {\n    require(msg.sender == curator);\n    _;\n  }\n\n  modifier noUnsealedProposal() {\n    require(unsealedProposal == false);\n    _;\n  }\n}\n",
  "sourcePath": "/Users/jklepatch/viktorassignment/phase1/contracts/dao.sol",
  "compiler": {
    "name": "solc",
    "version": "0.5.0+commit.1d4f565a.Emscripten.clang"
  },
  "schemaVersion": "3.0.0",
  "updatedAt": "2019-03-06T00:35:14.644Z",
  "devdoc": {
    "methods": {}
  },
  "userdoc": {
    "methods": {}
  }
}