{
  "contractName": "Split",
  "abi": [
    {
      "constant": true,
      "inputs": [
        {
          "name": "",
          "type": "uint256"
        }
      ],
      "name": "proposals",
      "outputs": [
        {
          "name": "id",
          "type": "uint256"
        },
        {
          "name": "description",
          "type": "string"
        },
        {
          "name": "voteYes",
          "type": "uint256"
        },
        {
          "name": "voteNo",
          "type": "uint256"
        },
        {
          "name": "initialTotalBalance",
          "type": "uint256"
        },
        {
          "name": "_sealed",
          "type": "bool"
        }
      ],
      "payable": false,
      "stateMutability": "view",
      "type": "function",
      "signature": "0x013cf08b"
    },
    {
      "constant": true,
      "inputs": [],
      "name": "creator",
      "outputs": [
        {
          "name": "",
          "type": "address"
        }
      ],
      "payable": false,
      "stateMutability": "view",
      "type": "function",
      "signature": "0x02d05d3f"
    },
    {
      "constant": true,
      "inputs": [],
      "name": "valuation",
      "outputs": [
        {
          "name": "",
          "type": "uint256"
        }
      ],
      "payable": false,
      "stateMutability": "view",
      "type": "function",
      "signature": "0x21a7cfe4"
    },
    {
      "constant": true,
      "inputs": [
        {
          "name": "",
          "type": "address"
        }
      ],
      "name": "balances",
      "outputs": [
        {
          "name": "",
          "type": "uint256"
        }
      ],
      "payable": false,
      "stateMutability": "view",
      "type": "function",
      "signature": "0x27e235e3"
    },
    {
      "constant": true,
      "inputs": [
        {
          "name": "",
          "type": "uint256"
        }
      ],
      "name": "investors",
      "outputs": [
        {
          "name": "",
          "type": "address"
        }
      ],
      "payable": false,
      "stateMutability": "view",
      "type": "function",
      "signature": "0x3feb5f2b"
    },
    {
      "constant": true,
      "inputs": [
        {
          "name": "",
          "type": "address"
        },
        {
          "name": "",
          "type": "uint256"
        }
      ],
      "name": "splits",
      "outputs": [
        {
          "name": "",
          "type": "uint256"
        }
      ],
      "payable": false,
      "stateMutability": "view",
      "type": "function",
      "signature": "0x6ccf1739"
    },
    {
      "constant": true,
      "inputs": [],
      "name": "unsealedProposal",
      "outputs": [
        {
          "name": "",
          "type": "bool"
        }
      ],
      "payable": false,
      "stateMutability": "view",
      "type": "function",
      "signature": "0x7cc3977d"
    },
    {
      "constant": true,
      "inputs": [
        {
          "name": "",
          "type": "address"
        },
        {
          "name": "",
          "type": "uint256"
        }
      ],
      "name": "votes",
      "outputs": [
        {
          "name": "",
          "type": "uint8"
        }
      ],
      "payable": false,
      "stateMutability": "view",
      "type": "function",
      "signature": "0x9f2524ee"
    },
    {
      "constant": true,
      "inputs": [],
      "name": "totalBalance",
      "outputs": [
        {
          "name": "",
          "type": "uint256"
        }
      ],
      "payable": false,
      "stateMutability": "view",
      "type": "function",
      "signature": "0xad7a672f"
    },
    {
      "constant": true,
      "inputs": [],
      "name": "curator",
      "outputs": [
        {
          "name": "",
          "type": "address"
        }
      ],
      "payable": false,
      "stateMutability": "view",
      "type": "function",
      "signature": "0xe66f53b7"
    },
    {
      "inputs": [],
      "payable": false,
      "stateMutability": "nonpayable",
      "type": "constructor",
      "signature": "constructor"
    },
    {
      "constant": false,
      "inputs": [
        {
          "name": "newCurator",
          "type": "address"
        }
      ],
      "name": "delegateCurator",
      "outputs": [],
      "payable": false,
      "stateMutability": "nonpayable",
      "type": "function",
      "signature": "0x41132271"
    },
    {
      "constant": false,
      "inputs": [
        {
          "name": "description",
          "type": "string"
        }
      ],
      "name": "createProposal",
      "outputs": [],
      "payable": false,
      "stateMutability": "nonpayable",
      "type": "function",
      "signature": "0x49c2a1a6"
    },
    {
      "constant": false,
      "inputs": [],
      "name": "deposit",
      "outputs": [],
      "payable": true,
      "stateMutability": "payable",
      "type": "function",
      "signature": "0xd0e30db0"
    },
    {
      "constant": false,
      "inputs": [
        {
          "name": "amount",
          "type": "uint256"
        }
      ],
      "name": "withdraw",
      "outputs": [],
      "payable": false,
      "stateMutability": "nonpayable",
      "type": "function",
      "signature": "0x2e1a7d4d"
    },
    {
      "constant": false,
      "inputs": [
        {
          "name": "proposalId",
          "type": "uint256"
        },
        {
          "name": "myVote",
          "type": "uint8"
        }
      ],
      "name": "vote",
      "outputs": [],
      "payable": false,
      "stateMutability": "nonpayable",
      "type": "function",
      "signature": "0x943e8216"
    },
    {
      "constant": false,
      "inputs": [],
      "name": "split",
      "outputs": [],
      "payable": false,
      "stateMutability": "nonpayable",
      "type": "function",
      "signature": "0xf7654176"
    },
    {
      "constant": true,
      "inputs": [
        {
          "name": "_of",
          "type": "address"
        }
      ],
      "name": "getBalance",
      "outputs": [
        {
          "name": "",
          "type": "uint256"
        }
      ],
      "payable": false,
      "stateMutability": "view",
      "type": "function",
      "signature": "0xf8b2cb4f"
    }
  ],
  "bytecode": "0x60806040526001600255600160055534801561001a57600080fd5b50336000806101000a81548173ffffffffffffffffffffffffffffffffffffffff021916908373ffffffffffffffffffffffffffffffffffffffff16021790555033600160006101000a81548173ffffffffffffffffffffffffffffffffffffffff021916908373ffffffffffffffffffffffffffffffffffffffff160217905550611575806100ab6000396000f3fe6080604052600436106100f1576000357c0100000000000000000000000000000000000000000000000000000000900463ffffffff168063013cf08b146100f657806302d05d3f146101d157806321a7cfe41461022857806327e235e3146102535780632e1a7d4d146102b85780633feb5f2b146102f3578063411322711461036e57806349c2a1a6146103bf5780636ccf1739146104455780637cc3977d146104b4578063943e8216146104e35780639f2524ee1461052b578063ad7a672f146105a8578063d0e30db0146105d3578063e66f53b7146105dd578063f765417614610634578063f8b2cb4f1461064b575b600080fd5b34801561010257600080fd5b5061012f6004803603602081101561011957600080fd5b81019080803590602001909291905050506106b0565b604051808781526020018060200186815260200185815260200184815260200183151515158152602001828103825287818151815260200191508051906020019080838360005b83811015610191578082015181840152602081019050610176565b50505050905090810190601f1680156101be5780820380516001836020036101000a031916815260200191505b5097505050505050505060405180910390f35b3480156101dd57600080fd5b506101e6610791565b604051808273ffffffffffffffffffffffffffffffffffffffff1673ffffffffffffffffffffffffffffffffffffffff16815260200191505060405180910390f35b34801561023457600080fd5b5061023d6107b6565b6040518082815260200191505060405180910390f35b34801561025f57600080fd5b506102a26004803603602081101561027657600080fd5b81019080803573ffffffffffffffffffffffffffffffffffffffff1690602001909291905050506107bc565b6040518082815260200191505060405180910390f35b3480156102c457600080fd5b506102f1600480360360208110156102db57600080fd5b81019080803590602001909291905050506107d4565b005b3480156102ff57600080fd5b5061032c6004803603602081101561031657600080fd5b8101908080359060200190929190505050610a68565b604051808273ffffffffffffffffffffffffffffffffffffffff1673ffffffffffffffffffffffffffffffffffffffff16815260200191505060405180910390f35b34801561037a57600080fd5b506103bd6004803603602081101561039157600080fd5b81019080803573ffffffffffffffffffffffffffffffffffffffff169060200190929190505050610aa6565b005b3480156103cb57600080fd5b50610443600480360360208110156103e257600080fd5b81019080803590602001906401000000008111156103ff57600080fd5b82018360208201111561041157600080fd5b8035906020019184600183028401116401000000008311171561043357600080fd5b9091929391929390505050610b68565b005b34801561045157600080fd5b5061049e6004803603604081101561046857600080fd5b81019080803573ffffffffffffffffffffffffffffffffffffffff16906020019092919080359060200190929190505050610d0f565b6040518082815260200191505060405180910390f35b3480156104c057600080fd5b506104c9610d34565b604051808215151515815260200191505060405180910390f35b3480156104ef57600080fd5b506105296004803603604081101561050657600080fd5b8101908080359060200190929190803560ff169060200190929190505050610d47565b005b34801561053757600080fd5b506105846004803603604081101561054e57600080fd5b81019080803573ffffffffffffffffffffffffffffffffffffffff16906020019092919080359060200190929190505050610e99565b6040518082600281111561059457fe5b60ff16815260200191505060405180910390f35b3480156105b457600080fd5b506105bd610ec8565b6040518082815260200191505060405180910390f35b6105db610ece565b005b3480156105e957600080fd5b506105f26110ac565b604051808273ffffffffffffffffffffffffffffffffffffffff1673ffffffffffffffffffffffffffffffffffffffff16815260200191505060405180910390f35b34801561064057600080fd5b506106496110d2565b005b34801561065757600080fd5b5061069a6004803603602081101561066e57600080fd5b81019080803573ffffffffffffffffffffffffffffffffffffffff1690602001909291905050506111da565b6040518082815260200191505060405180910390f35b6007602052806000526040600020600091509050806000015490806001018054600181600116156101000203166002900480601f0160208091040260200160405190810160405280929190818152602001828054600181600116156101000203166002900480156107625780601f1061073757610100808354040283529160200191610762565b820191906000526020600020905b81548152906001019060200180831161074557829003601f168201915b5050505050908060020154908060030154908060040154908060050160009054906101000a900460ff16905086565b6000809054906101000a900473ffffffffffffffffffffffffffffffffffffffff1681565b60025481565b60066020528060005260406000206000915090505481565b80600660003373ffffffffffffffffffffffffffffffffffffffff1673ffffffffffffffffffffffffffffffffffffffff168152602001908152602001600020541015151561082257600080fd5b806003541015151561083357600080fd5b600460009054906101000a900460ff16156108d0576000600281111561085557fe5b600860003373ffffffffffffffffffffffffffffffffffffffff1673ffffffffffffffffffffffffffffffffffffffff1681526020019081526020016000206000600160055403815260200190815260200160002060009054906101000a900460ff1660028111156108c357fe5b1415156108cf57600080fd5b5b6000600254905060001515600460009054906101000a900460ff16151514801561095057506000600a60003373ffffffffffffffffffffffffffffffffffffffff1673ffffffffffffffffffffffffffffffffffffffff168152602001908152602001600020600060016005540381526020019081526020016000205414155b801561095e57506000600254115b156109bc57600a60003373ffffffffffffffffffffffffffffffffffffffff1673ffffffffffffffffffffffffffffffffffffffff168152602001908152602001600020600060016005540381526020019081526020016000205490505b81600660003373ffffffffffffffffffffffffffffffffffffffff1673ffffffffffffffffffffffffffffffffffffffff16815260200190815260200160002060008282540392505081905550816003600082825403925050819055503373ffffffffffffffffffffffffffffffffffffffff166108fc60025484029081150290604051600060405180830381858888f19350505050158015610a63573d6000803e3d6000fd5b505050565b600981815481101515610a7757fe5b906000526020600020016000915054906101000a900473ffffffffffffffffffffffffffffffffffffffff1681565b600160009054906101000a900473ffffffffffffffffffffffffffffffffffffffff1673ffffffffffffffffffffffffffffffffffffffff163373ffffffffffffffffffffffffffffffffffffffff16141515610b0257600080fd5b60001515600460009054906101000a900460ff161515141515610b2457600080fd5b80600160006101000a81548173ffffffffffffffffffffffffffffffffffffffff021916908373ffffffffffffffffffffffffffffffffffffffff16021790555050565b600160009054906101000a900473ffffffffffffffffffffffffffffffffffffffff1673ffffffffffffffffffffffffffffffffffffffff163373ffffffffffffffffffffffffffffffffffffffff16141515610bc457600080fd5b60001515600460009054906101000a900460ff161515141515610be657600080fd5b60c060405190810160405280600554815260200183838080601f016020809104026020016040519081016040528093929190818152602001838380828437600081840152601f19601f8201169050808301925050505050505081526020016000815260200160008152602001600354815260200160001515815250600760006005548152602001908152602001600020600082015181600001556020820151816001019080519060200190610c9c9291906114a4565b5060408201518160020155606082015181600301556080820151816004015560a08201518160050160006101000a81548160ff0219169083151502179055509050506001600460006101000a81548160ff0219169083151502179055506005600081548092919060010191905055505050565b600a602052816000526040600020602052806000526040600020600091509150505481565b600460009054906101000a900460ff1681565b6000600760008481526020019081526020016000206000015414151515610d6d57600080fd5b600015156007600084815260200190815260200160002060050160009054906101000a900460ff161515141515610da357600080fd5b60006002811115610db057fe5b816002811115610dbc57fe5b14151515610dc957600080fd5b60006002811115610dd657fe5b600860003373ffffffffffffffffffffffffffffffffffffffff1673ffffffffffffffffffffffffffffffffffffffff168152602001908152602001600020600084815260200190815260200160002060009054906101000a900460ff166002811115610e3f57fe5b141515610e4b57600080fd5b610e958282600660003373ffffffffffffffffffffffffffffffffffffffff1673ffffffffffffffffffffffffffffffffffffffff16815260200190815260200160002054611223565b5050565b60086020528160005260406000206020528060005260406000206000915091509054906101000a900460ff1681565b60035481565b34600660003373ffffffffffffffffffffffffffffffffffffffff1673ffffffffffffffffffffffffffffffffffffffff168152602001908152602001600020600082825401925050819055503460036000828254019250508190555060093390806001815401808255809150509060018203906000526020600020016000909192909190916101000a81548173ffffffffffffffffffffffffffffffffffffffff021916908373ffffffffffffffffffffffffffffffffffffffff160217905550506000600860003373ffffffffffffffffffffffffffffffffffffffff1673ffffffffffffffffffffffffffffffffffffffff1681526020019081526020016000206000600160055403815260200190815260200160002060009054906101000a900460ff16905060011515600460009054906101000a900460ff16151514801561103257506000600281111561102357fe5b81600281111561102f57fe5b14155b801561109357506000600a60003373ffffffffffffffffffffffffffffffffffffffff1673ffffffffffffffffffffffffffffffffffffffff1681526020019081526020016000206000600160055403815260200190815260200160002054145b156110a9576110a86001600554038234611223565b5b50565b600160009054906101000a900473ffffffffffffffffffffffffffffffffffffffff1681565b60011515600460009054906101000a900460ff1615151415156110f457600080fd5b6000600281111561110157fe5b600860003373ffffffffffffffffffffffffffffffffffffffff1673ffffffffffffffffffffffffffffffffffffffff1681526020019081526020016000206000600160055403815260200190815260200160002060009054906101000a900460ff16600281111561116f57fe5b1415151561117c57600080fd5b600254600a60003373ffffffffffffffffffffffffffffffffffffffff1673ffffffffffffffffffffffffffffffffffffffff1681526020019081526020016000206000600160055403815260200190815260200160002081905550565b6000600660008373ffffffffffffffffffffffffffffffffffffffff1673ffffffffffffffffffffffffffffffffffffffff168152602001908152602001600020549050919050565b60006007600085815260200190815260200160002090506001600281111561124757fe5b83600281111561125357fe5b141561127057818160020160008282540192505081905550611283565b8181600301600082825401925050819055505b82600860003373ffffffffffffffffffffffffffffffffffffffff1673ffffffffffffffffffffffffffffffffffffffff168152602001908152602001600020600086815260200190815260200160002060006101000a81548160ff021916908360028111156112ef57fe5b02179055508060040154816003015460020211156113455760018160050160006101000a81548160ff0219169083151502179055506000600460006101000a81548160ff02191690831515021790555050611458565b8060040154816002015460020211156114565760018160050160006101000a81548160ff0219169083151502179055506000600460006101000a81548160ff02191690831515021790555061139a600b61145d565b600254026002819055506000600254141561145557600060038190555060008090505b60098054905081101561145357600660006009838154811015156113dd57fe5b9060005260206000200160009054906101000a900473ffffffffffffffffffffffffffffffffffffffff1673ffffffffffffffffffffffffffffffffffffffff1673ffffffffffffffffffffffffffffffffffffffff1681526020019081526020016000206000905580806001019150506113bd565b505b5b505b505050565b60008142446040516020018083815260200182815260200192505050604051602081830303815290604052805190602001206001900481151561149c57fe5b069050919050565b828054600181600116156101000203166002900490600052602060002090601f016020900481019282601f106114e557805160ff1916838001178555611513565b82800160010185558215611513579182015b828111156115125782518255916020019190600101906114f7565b5b5090506115209190611524565b5090565b61154691905b8082111561154257600081600090555060010161152a565b5090565b9056fea165627a7a72305820787b49c049e72aa95edf29a24589fb2d5f8f2f48761e5678be347e166e0ab05a0029",
  "source": "pragma solidity ^0.5.0;\n\ncontract Split {\n  struct Proposal {\n    uint id;\n    string description;\n    uint voteYes;\n    uint voteNo;\n    uint initialTotalBalance;\n    bool _sealed; //sealed is a reserved keyword\n  }\n  enum Vote {\n    UNDEFINED,\n    YES,\n    NO\n  }\n  address public creator;\n  address public curator;\n  uint public valuation = 1;\n  uint public totalBalance;\n  bool public unsealedProposal; //true if there is an unsealed proposal (i.e a vote is ongoing)\n  uint nextProposalId = 1; //1 and not 0 so that we can check that a proposal exist with `proposals[proposalId].id != 0`\n  mapping(address => uint) public balances; //token balances.\n  mapping(uint => Proposal) public proposals; //collection of proposals index by the their ids\n  mapping(address => mapping(uint => Vote)) public votes; //represents user votes, per proposal. nested uint is proposalId\n  address[] public investors; //to be able to reset balances mapping\n  mapping(address => mapping(uint => uint)) public splits; //nested mapping is proposalId to valuation at beginning of voting periode\n\n  constructor() public {\n    creator = msg.sender;\n    curator = msg.sender;\n  }\n\n  function delegateCurator(address newCurator) \n    external \n    isCurator()\n    noUnsealedProposal() {\n    curator = newCurator; \n  }\n  \n  function createProposal(string calldata description) \n    external \n    isCurator()\n    noUnsealedProposal() {\n    proposals[nextProposalId] = Proposal(\n      nextProposalId, \n      description, \n      0,\n      0,\n      totalBalance,\n      false\n    );\n    unsealedProposal = true;\n    nextProposalId++;\n  }\n\n  function deposit() external payable {\n    balances[msg.sender] += msg.value;\n    totalBalance += msg.value;\n    investors.push(msg.sender); //certain addresses will be added several times if several deposit, but this array is only used to reset balances, so thats ok\n\n    //vote for current proposal IF its unsealed AND sender has already voted\n    Vote myVote = votes[msg.sender][nextProposalId - 1];\n    if(unsealedProposal == true && myVote != Vote.UNDEFINED && splits[msg.sender][nextProposalId - 1] == 0) {\n      _vote(nextProposalId - 1, myVote, msg.value);\n    }\n  }\n\n  function withdraw(uint amount) external {\n    require(balances[msg.sender] >= amount);\n    require(totalBalance >= amount);\n    //If a proposal in unsealed (i.e we are voting) and the sender has voted, all his/her tokens are frozen, cant withdraw\n    if(unsealedProposal) {\n      require(votes[msg.sender][nextProposalId - 1] == Vote.UNDEFINED);\n    }\n\n    uint _valuation = valuation;\n    if(unsealedProposal == false && splits[msg.sender][nextProposalId -1] != 0 && valuation > 0) {\n      _valuation = splits[msg.sender][nextProposalId - 1];\n    }\n\n    balances[msg.sender] -= amount;\n    totalBalance -= amount;\n    msg.sender.transfer(amount * valuation);\n  }\n\n  function vote(uint proposalId, Vote myVote) external {\n    require(proposals[proposalId].id != 0); //make sure proposal exist\n    require(proposals[proposalId]._sealed == false);\n    require(myVote != Vote.UNDEFINED);\n    require(votes[msg.sender][proposalId] == Vote.UNDEFINED); //if vote is UNDEFINED means user never voted before\n    _vote(proposalId, myVote, balances[msg.sender]);\n  }\n\n  function split() external {\n    require(unsealedProposal == true);\n    require(votes[msg.sender][nextProposalId - 1] != Vote.UNDEFINED);\n    splits[msg.sender][nextProposalId - 1] = valuation;\n  }\n\n  function _vote(uint proposalId, Vote myVote, uint amount) internal {\n    Proposal storage proposal = proposals[proposalId];\n    if(myVote == Vote.YES) {\n      proposal.voteYes += amount;\n    } else {\n      proposal.voteNo += amount;\n    }\n    votes[msg.sender][proposalId] = myVote;\n    if(2 * proposal.voteNo > proposal.initialTotalBalance) {\n      proposal._sealed = true;\n      unsealedProposal = false;\n      return;\n    }\n    if(2 * proposal.voteYes > proposal.initialTotalBalance) {\n      proposal._sealed = true;\n      unsealedProposal = false;\n      valuation = valuation * _random(11);\n      if(valuation == 0) {\n        totalBalance = 0;\n        for(uint i = 0; i < investors.length; i++) {\n          delete balances[investors[i]];\n        }\n      }\n    }\n  }\n\n  function _random(uint modulo) view internal returns(uint) {\n    return uint(keccak256(abi.encodePacked(block.timestamp, block.difficulty))) % modulo;\n  }\n\n  function getBalance(address _of) view external returns(uint) {\n    return balances[_of]; //of is a reserved keyword\n  }\n\n  modifier isCurator() {\n    require(msg.sender == curator);\n    _;\n  }\n\n  modifier noUnsealedProposal() {\n    require(unsealedProposal == false);\n    _;\n  }\n}\n",
  "sourcePath": "/Users/jklepatch/viktorassignment/phase1/contracts/split.sol",
  "compiler": {
    "name": "solc",
    "version": "0.5.0+commit.1d4f565a.Emscripten.clang"
  },
  "schemaVersion": "3.0.0",
  "updatedAt": "2019-03-06T00:35:14.654Z",
  "devdoc": {
    "methods": {}
  },
  "userdoc": {
    "methods": {}
  }
}